:0E047F004164642020436F6D20204E756D0097
:0304380001280098
:10026B0012044C1204B57BFF7A04797F7D017F0168
:10027B001203AFE509FB7A007517027D017F0212AD
:10028B00030BE508FB7A007517027D067F0212034C
:10029B000BE508B4150DD3E50A6480948040041572
:1002AB0028150AE508B4090DD3E50A64809480404B
:1002BB00040528150AE528FB7A007517037D0B7FCB
:0602CB00021203F080ADF9
:10042300EF1FAC0670011E4C600A7D027CEFDCFE00
:04043300DDFC80EC80
:0104370022A2
:0B048D00D288C289D2A8D2AFD2B82218
:06047000C2A58F80D2A797
:080476007F027EEFDEFEDFFCD9
:01047E00225B
:0A049800C2A6120470C2A702047687
:1003D200CFCDCFCECCCE12018A7C007D0A12018A0B
:0403E200ED2430FFD7
:0A03E600D2A6120470C2A70204762A
:10040D00AE07BE0104ED148006BE0209ED243F4483
:06041D0080FF120498228A
:10044C007F381204987F0C1204987F061204987F50
:04045C0001020498FD
:0A04A200AC0312040DAF040203E6E0
:0603AF008B138A1489156E
:1003B50012040DE4FDAB13AA14A9158D82758300F3
:0C03C50012014BFF60061203E60D80E9F8
:0103D1002209
:0C037C007F0AEA24FFFDE434FFFC7E0051
:080388008E188F198C1A8D1BD1
:100390007F017E00E4FBEBC3951BE51A6480F874D3
:0E03A0008098500AAC18AD191201780B80E855
:0103AE00222C
:0403F0008A158B16C9
:1003F40012040DAA17EAD39400400D12037CAC1525
:08040400AD161203D21A80EDBF
:01040C0022CD
:1002D10012040DC3EA64809480400B7F2B1203E665
:1002E1008A218B22800E7F2D1203E6C3E49BF52227
:1002F100E49AF521AA20EAD39400400D12037CACC4
:0903010021AD221203D21A80ED95
:01030A0022D0
:04030B008A158B16AE
:10030F0012040DAA17EAD3940040297F1012037E1E
:10031F00AC15AD16CFCDCFCECCCE12018AEF540F88
:10032F00FEC3940AEE5004243080022437FF1203D8
:04033F00E61A80D169
:010343002297
:040344008A258B2655
:1003480012040DAA27EAD394004028EA24FFFDE40A
:1003580034FFFC7F027E00120388AC25AD26CFCD8A
:10036800CFCECCCE12018AEF54012430FF1203E61F
:030378001A80D216
:01037B00225F
:10043B00010800010A01040B00000000021000007B
:0604B50012046002048D38
:03000300020006F2
:10000600C0E0C0F0C083C082C0D075D000C000C0C0
:1000160001C002C003C004C005C006C007E50F70DA
:100026000E1204BB7F011204C1750F01020130E5F7
:100036000F640170481204AC8E108F111204BBC3FA
:10004600E511948EE51094325010E51194A6E51052
:10005600942E4006750F02020130D3E511948CE50B
:100066001094264012E5119474E510942A500875F0
:100076000F00050A020130750F00020130E50F641A
:100086000260030201301204AC8E108F111204BB01
:10009600C3E51194FCE5109405502CE5119414E584
:1000A6001094024022E512131313541F240BF8C0B8
:1000B60000E6FFE5125407FE7401A806088002C395
:1000C60033D8FCF45F8034C3E511940EE510940A2E
:1000D6005030E5119426E51094064026E5121313D8
:1000E60013541F240BF8C000E6FFE5125407FE74F4
:1000F60001A806088002C333D8FC4FD000F60512CB
:100106008006751200750F01E512D3941F401BE59A
:100116000CF4B50B0CE50EF4B50D06850B09850D33
:1001260008751200750F001204BBD007D006D00563
:10013600D004D003D002D001D000D0D0D082D0835A
:05014600D0F0D0E03212
:100460005389F0438901E4F58AF58CC28DC28C2250
:0604BB00E4F58CF58A2235
:0904AC00AF8CEFFEAD8AEDFF22DA
:0604C100EF24FF928C22E3
:030000000201DF1B
:0C01DF00787FE4F6D8FD75812802022626
:10014B00BB010CE58229F582E5833AF583E0225069
:10015B0006E92582F8E622BBFE06E92582F8E222B3
:0D016B00E58229F582E5833AF583E49322CD
:10017800EF8DF0A4A8F0CF8CF0A428CE8DF0A42E9B
:02018800FE2255
:10018A00BC000BBE0029EF8DF084FFADF022E4CC59
:10019A00F875F008EF2FFFEE33FEEC33FCEE9DEC22
:1001AA00984005FCEE9DFE0FD5F0E9E4CEFD22ED68
:1001BA00F8F5F0EE8420D21CFEADF075F008EF2FB2
:1001CA00FFED33FD4007985006D5F0F222C398FDA3
:0501DA000FD5F0EA2240
:1001EB0002026BE493A3F8E493A34003F68001F2BD
:1001FB0008DFF48029E493A3F85407240CC8C33315
:10020B00C4540F4420C8834004F456800146F6DFE3
:10021B00E4800B0102040810204080900438E47E37
:10022B00019360BCA3FF543F30E509541FFEE493D8
:10023B00A360010ECF54C025E060A840B8E493A39F
:10024B00FAE493A3F8E493A3C8C582C8CAC583CACA
:10025B00F0A3C8C582C8CAC583CADFE9DEE780BE82
:01044B0000B0
:00000001FF
