:0C0958000A083F065B4F666D7D077F6F4D
:0D0935007D017C007E0012088C7F027E0098
:10094200EF1FAC0670011E4C600B007D027CC7DC01
:05095200FEDDFC80EB5E
:01095700227D
:10088C00EE705BEF14B4080050549008A475F0039C
:10089C00A4C58325F0C583730208BC0208C00208F6
:1008AC00C40208C80208CC0208D40208DC0208E41E
:1008BC00D2A4800ED2A48012D2A48016D2A4801A04
:1008CC00C2A4D2A3D2A28016C2A4D2A3C2A2800E6A
:1008DC00C2A4C2A3D2A28006C2A4C2A3C2A274089C
:1008EC002DF8E6F5807F017E00120942E4F58022A6
:1008FC007D057C007F011209397D027C007F02128C
:10090C000939E4FDFC7F03FE12093B7F0512093512
:10091C007D037C007F061209397F071209357D049F
:09092C007C007F0812093980C724
:03000000020800F3
:0C080000787FE4F6D8FD758111020847EE
:10080C000208FCE493A3F8E493A34003F68001F2FE
:10081C0008DFF48029E493A3F85407240CC8C333ED
:10082C00C4540F4420C8834004F456800146F6DFBC
:10083C00E4800B0102040810204080900958E47EEB
:10084C00019360BCA3FF543F30E509541FFEE493B1
:10085C00A360010ECF54C025E060A840B8E493A378
:10086C00FAE493A3F8E493A3C8C582C8CAC583CAA3
:10087C00F0A3C8C582C8CAC583CADFE9DEE780BE5B
:010964000092
:00000001FF
