:0301FB00011500EB
:100168001201CF1201078F14E514B40105051253CB
:100178001203E5127002F515E512B4010375153284
:10018800E512B4020375154BE512B4030375156443
:10019800E513C395155004D2908002C290E512FD74
:0901A8007C007F0112009A80BA6C
:03000B000201B13E
:1001B100C0E0C0F0C0D0758AA4758CFF0513E513AB
:0E01C10075F0648485F013D0D0D0F0D0E03219
:1001CF005389F0438901758AA4758CFFC28DD28C37
:0701DF00D2A9D2AFC2B92280
:1001E600EF1FAC0670011E4C600A7D027CEFDCFE40
:0401F600DDFC80ECC0
:0101FA0022E2
:10010700E4F51620B1137F14FE1201E630B1FD7F2E
:10011700147E001201E675160120B0147F147E00CC
:100127001201E630B0FD7F147E001201E67516025B
:1001370020B2147F147E001201E630B2FD7F147ED8
:10014700001201E675160320B3147F147E00120116
:10015700E630B3FD7F147E001201E6751604AF1674
:010167002275
:0C01FE000A083F065B4F666D7D077F6FAF
:10009A00EF14B4080050549000AF75F003A4C58360
:1000AA0025F0C583730200C70200CB0200CF02000D
:1000BA00D30200D70200DF0200E70200EFD2A480D9
:1000CA000ED2A48012D2A48016D2A4801AC2A4D2BC
:1000DA00A3D2A28016C2A4D2A3C2A2800EC2A4C274
:1000EA00A3D2A28006C2A4C2A3C2A274082DF8E6B3
:0D00FA00F5807F017E001201E6E4F5802212
:0300000002000EED
:0C000E00787FE4F6D8FD758116020055DD
:10001A00020168E493A3F8E493A34003F68001F293
:10002A0008DFF48029E493A3F85407240CC8C333E7
:10003A00C4540F4420C8834004F456800146F6DFB6
:10004A00E4800B01020408102040809001FBE47E4A
:10005A00019360BCA3FF543F30E509541FFEE493AB
:10006A00A360010ECF54C025E060A840B8E493A372
:10007A00FAE493A3F8E493A3C8C582C8CAC583CA9D
:10008A00F0A3C8C582C8CAC583CADFE9DEE780BE55
:01020A0000F3
:00000001FF
