:090AB300543A00483A004C3A00A4
:10046D00E4F50FF50EF50DF50CF510F512FF12086C
:10047D007D8F127F0112087D8F11D3E51164809459
:10048D00FD5015C3E51264809449400CE51164805C
:10049D00F8E512648098400675111E751214120A43
:1004AD007C7FE87E03120A44120A01120A597BFF6F
:1004BD007A0A79B37D017F011208D97BFF7A0A7917
:1004CD00B67D017F021208D97BFF7A0A79B97D08C2
:1004DD007F021208D9120A7C12084A8F0B8E0A8DE0
:1004ED00098C088F0F8E0E8D0D8C0CE4FFFEFDFC1C
:1004FD00AB0BAA0AA909A8081201B45017AF0BAE8D
:10050D000AAD09AC0812022D8F0B8E0A8D098C08CD
:10051D007B2D80027B2B7D037F01120A9FAF0BAEDB
:10052D000AAD09AC0812027CAB07AA067517037D4C
:10053D00047F011209787B2E7D077F01120A9F7FB0
:10054D00007E407D1C7C46AB0BAA0AA909A80812A7
:10055D00000E12027CE47B107A27F9F81203CD7598
:10056D0017047D087F01120978120ACC8F10E5104F
:10057D00604EB4010D0511D3E511648094FD400268
:10058D001511E510B402111511D3E5126480F8E5CB
:10059D001164809850020511E510B403110512D3B2
:1005AD00E5126480F8E51164809850021512E5108B
:1005BD00B4040D1512C3E51264809449500205125E
:1005CD00E511FB3395E0FA7517037D037F021207E2
:1005DD0033E512FB3395E0FA7517037D0A7F02129E
:1005ED000733AD12E4FF1208FC7F057E00120A44AA
:1005FD00AD117F011208FC7F057E00120A44AC117B
:10060D00EC120248AB0FAA0EA90DA80C1201B46092
:10061D000640047B488015AC12EC120248AB0FAAC1
:10062D000EA90DA80C1201B4500C7B4C7D107F014E
:10063D00120A9F0204E27B207D107F01120A9F02A5
:02064D0004E2C5
:03000B000206DB0F
:1006DB00C0E0C0F0C083C082C0D075D000C000C0E5
:0D06EB0001C002C003C004C005C006C00766
:1006F800758A18758CFC052CE52C7002052BC394A3
:1007080014E52B94004009752B00752C001207A6E0
:10071800D007D006D005D004D003D002D001D00035
:0B072800D0D0D082D083D0F0D0E032DF
:100A4400EF1FAC0670011E4C600A7D027CEFDCFED9
:040A5400DDFC80EC59
:010A5800227B
:060A6D00C2A58F80D2A794
:080A73007F027EEFDEFEDFFCD6
:010A7B002258
:0A0A9500C2A6120A6DC2A7020A737E
:10091E00CFCDCFCECCCE12033C7C007D0A12033C51
:04092E00ED2430FF85
:0A093200D2A6120A6DC2A7020A73D2
:100A1800AE07BE0104ED148006BE0209ED243F4472
:060A280080FF120A952276
:100A59007F38120A957F0C120A957F06120A957F34
:040A690001020A95E7
:0A0A9F00AC03120A18AF040209327A
:0608D9008B138A1489153F
:1008DF00120A18E4FDAB13AA14A9158D82758300B3
:0C08EF001202FDFF60061209320D80E9C4
:0108FB0022DA
:0C0817007F0AEA24FFFDE434FFFC7E00B1
:080823008E1A8F1B8C1C8D1D29
:10082B007F017E00E4FBEBC3951DE51C6480F8742F
:0E083B008098500AAC1AAD1B12032A0B80E8FD
:01084900228C
:040978008A158B163B
:10097C00120A18AA17EAD39400400D120817AC15E6
:08098C00AD1612091E1A80EDE0
:010994002240
:10073300120A18C3EA64809480400B7F2B1209329B
:100743008A188B19800E7F2D120932C3E49BF51989
:10075300E49AF518AA17EAD39400400D120817ACCF
:0907630018AD1912091E1A80EDEF
:01076C00226A
:04076D008A208B2132
:10077100120A18AA22EAD3940040297F10120819FC
:10078100AC20AD21CFCDCFCECCCE12033CEF540F58
:10079100FEC3940AEE5004243080022437FF12096C
:0407A100321A80D1B7
:0107A5002231
:0407DF008A258B26B6
:1007E300120A18AA27EAD394004028EA24FFFDE45A
:1007F30034FFFC7F027E00120823AC25AD26CFCD4B
:10080300CFCECCCE12033CEF54012430FF12093279
:030813001A80D276
:0108160022BF
:10093C00E4FFC2AFD2B7C2B77EE3DEFED2B77E1DF4
:0D094C00DEFEA2B7E433FF7EB5DEFED2AFC3
:01095900227B
:1009CF00E4C2AFD2B7C2B77E02DEFEEF24FF92B70A
:0809DF007E19DEFED2B7D2AF93
:0109E70022ED
:10099500E4FFFEC2AFD2B7C2B70FDFFED2B700A2E7
:0C09A500B7E433FE7F14DFFED2AFAF06D4
:0109B1002223
:0209E800AD0759
:1009EA00E4FC7401A804088002C333D8FC5DFF123A
:0609FA0009CF0CBC08EC63
:010A000022D3
:1009B200E4FDFC120995EF600D7401A804088002A1
:0C09C200C333D8FC42050CBC08E9AF05AB
:0109CE002206
:0D0A7C0012093C7FCC1209E87F440209E812
:10084A00E4FFFEFBFAF9F812093C7FCC1209E87FB3
:10085A00BE1209E81209B28F131209B2EFFEE513AC
:10086A00FFFDAC06EC120243E4FBFA7980784112F0
:02087A00011764
:01087C002259
:100A01005389F0438901758A18758CFCC28DD28C8B
:070A1100D2A9D2AFC2B92245
:06000300012A00012900A2
:050ACC00E4AF2AF52A49
:010AD1002202
:100A2E00E4FF20B1010F20B0027F0220B2027F034B
:050A3E0020B3027F045B
:010A43002290
:1007A600852829120A2E8F28E5287008E529B40124
:1007B60003752A01E5287008E529B40203752A02A3
:1007C600E5287008E529B40303752A03E5287008AF
:0807D600E529B40403752A04AF
:0107DE0022F8
:1008FC008F138D14120ABC7FA01208B0120A89AF94
:10090C00131208B0120A89AF141208B0120A890225
:02091C000AC50A
:02087D008F13D7
:10087F00E4F514120ABC7FA01208B0120A89AF1354
:10088F001208B0120A89120ABC7FA11208B0120A0C
:10089F008912095A8F147F01120AA9120AC5AF14BF
:0108AF002226
:090ABC00D2A1D2A0C2A0C2A12265
:070AC500C2A0D2A1D2A022C1
:0208B000AD0792
:1008B200E4FB74807E00A803088006CEA2E713CE74
:1008C20013D8F8FFEDF582EF558224FF92A0D2A152
:0608D200C2A10BBB08DC13
:0108D80022FD
:10095A00E4FFD2A0FED2A130A00D7480A8060880C0
:0D096A0002C313D8FC4207C2A10EBE08E86C
:01097700225D
:0A0AA900EF24FF92A0D2A1C2A12207
:0B0A8900E4D2A0D2A1A2A033FFC2A1C2
:010A9400223F
:10000E00EC4D6011E8497017ED33EC3304600DE4EC
:10001E00FCFFFEFD22E933E8330470F80202E81219
:10002E0002B358046009E4CC24815006285009021A
:10003E0002F22840030202EFC0E0EB4A7044B9809E
:10004E0006D0E0FB0202DEEF4E701CBD8008EBFF17
:10005E00EAFEE9FD80EBE98DF0A4FEE5F00200F783
:10006E00E9CDF9EAFEEBFFEF89F0A4FCE5F0CE89CD
:10007E00F0A42EFFE435F0CD89F0A42DFEE435F08A
:10008E008067EF4E7005BD80D780C3EF8BF0A4ACB8
:10009E00F0EE8BF0A42CFCE435F0F8EF8AF0A42CF3
:1000AE00E5F038FCE433CB8DF0A42CFCE5F03BF806
:1000BE00EE8AF0A42CFCE5F038F8E433CF89F0A4F6
:1000CE002CFCE5F038CF3400CE89F0A42FFFE5F0FC
:1000DE003EFEE433C98DF0A42EFEE5F039CD8AF054
:1000EE00A42FFFE5F03EFEE43DFD33D0E0FB5007CC
:1000FE000BBB000F0202F2EC2CFCEF33FFEE33FED3
:06010E00ED33FD0202CA00
:100114000202F2EC5D046005E8590470030202E88F
:100124001202B3580460F6EC4860F2EC7004FDFE71
:10013400FF22C860DB2481C85009C39860025006BE
:100144000202EF9850CAF582E9294B4A7005AB8246
:100154000202DE75F0007C1A7880C3EF9BEE9AED04
:1001640099400DC3EF9BFFEE9AFEED99FDE842F036
:10017400DC23ACF0D0E0FFD0E0FED0E0FDAB822089
:10018400E7101BEB60BAEC2CFCEF33FFEE33FEED13
:1001940033FD0202CAE803F830E705C0F075F00049
:1001A400EF2FFFEE33FEED33FD40B830E7C280AAF7
:1001B40074F8CC6480CCC86480C8F58204604FC3F2
:1001C400EB9FF5F0EA9E42F0E99D42F0E89C45F091
:1001D400603C501DE5825FFFE582D313CB5BCBF41B
:1001E4002B5582FB50280ABA002409B90020088044
:1001F4001DE5825BFBE582D313CF5FCFF4C3132FDE
:100204005582FF50090EBE00050DBD00010CC3EB65
:100214009FF5F0EA9E42F0E99D42F0E89C45F060CB
:0902240007CC4820E701B3EC22ED
:10022D00ED33EC33600A047003BD8004ECB2E7FCDF
:01023D00229E
:10023E0075F020800E75F010800575F0087D007E3B
:10024E00007F003392D530D50312045FEC3340109B
:10025E00EF33FFEE33FEED33FDEC33FCD5F0ED2244
:0E026E00E5F0247EA2D513CC92E7CDCEFF2280
:10027C00EDD2E7CD33EC3392D524814006E4FFFE7A
:10028C00FDFC22FCE4CFCECDCC24E0501174FF80D9
:10029C00EDC3CC13CCCD13CDCE13CECF13CF047076
:0702AC00F030D5DE02045F13
:1002B300E9D2E7C933E833F892D5EDD2E7CD33EC91
:0702C30033FC5002B2D5220A
:1002CA00EC30E7100FBF000C0EBE00080DBD000495
:1002DA000BEB6014A2D5EB13FCED92E7FD2274FF41
:1002EA00FCFDFEFF22E480F8A2D574FF13FC7D809A
:0302FA00E480EFAE
:0300000002064FA6
:0C064F00787FE4F6D8FD75812C02069639
:1002FD00BB010CE58229F582E5833AF583E02250B6
:10030D0006E92582F8E622BBFE06E92582F8E222FF
:0D031D00E58229F582E5833AF583E4932219
:10032A00EF8DF0A4A8F0CF8CF0A428CE8DF0A42EE7
:02033A00FE22A1
:10033C00BC000BBE0029EF8DF084FFADF022E4CCA5
:10034C00F875F008EF2FFFEE33FEEC33FCEE9DEC6E
:10035C00984005FCEE9DFE0FD5F0E9E4CEFD22EDB4
:10036C00F8F5F0EE8420D21CFEADF075F008EF2FFE
:10037C00FFED33FD4007985006D5F0F222C398FDEF
:05038C000FD5F0EA228C
:1003910075F008758200EF2FFFEE33FECD33CDCC23
:1003A10033CCC58233C5829BED9AEC99E5829840A6
:1003B1000CF582EE9BFEED9AFDEC99FC0FD5F0D683
:1003C100E4CEFBE4CDFAE4CCF9A88222B800C1B9AD
:1003D1000059BA002DEC8BF084CFCECDFCE5F0CBEB
:1003E100F97818EF2FFFEE33FEED33FDEC33FCEB24
:1003F10033FB10D703994004EB99FB0FD8E5E4F9DF
:10040100FA227818EF2FFFEE33FEED33FDEC33FCCB
:10041100C933C910D7059BE99A4007EC9BFCE99ABF
:10042100F90FD8E0E4C9FAE4CCFB2275F010EF2F04
:10043100FFEE33FEED33FDCC33CCC833C810D70704
:100441009BEC9AE899400AED9BFDEC9AFCE899F83F
:0E0451000FD5F0DAE4CDFBE4CCFAE4C8F922D2
:0E045F00C3E49FFFE49EFEE49DFDE49CFC22AE
:10065B0002046DE493A3F8E493A34003F68001F244
:10066B0008DFF48029E493A3F85407240CC8C333A0
:10067B00C4540F4420C8834004F456800146F6DF6F
:10068B00E4800B0102040810204080900003E47EFC
:10069B00019360BCA3FF543F30E509541FFEE49364
:1006AB00A360010ECF54C025E060A840B8E493A32B
:1006BB00FAE493A3F8E493A3C8C582C8CAC583CA56
:1006CB00F0A3C8C582C8CAC583CADFE9DEE780BE0E
:0100090000F6
:00000001FF
