:0D02DF0041444A20204E5443202047520045
:10009700E4F508F5091202BC7BFF7A0279DF7D01DE
:1000A7007F011202337F9C1200FA8E088F09750EAA
:1000B70003AB09AA087D017F021202747FDC1200DC
:1000C700FA8E088F09750E03AB09AA087D067F0211
:1000D7001202747FAC1200FA8E088F09750E03ABFB
:1000E70009AA087D0B7F021202747F327E0012027A
:0300F700A780B22D
:1002A700EF1FAC0670011E4C600A7D027CEFDCFE7E
:0402B700DDFC80ECFE
:0102BB002220
:0602D000C2A58F80D2A739
:0802D6007F027EEFDEFEDFFC7B
:0102DE0022FD
:0A02F800C2A61202D0C2A70202D66D
:10025600CFCDCFCECCCE1200427C007D0A1200421A
:04026600ED2430FF54
:0A026A00D2A61202D0C2A70202D6EB
:10029100AE07BE0104ED148006BE0209ED243F4401
:0602A10080FF1202F822AA
:1002BC007F381202F87F0C1202F87F061202F87FC8
:0402CC00010202F831
:0A030200AC03120291AF0402026A7C
:060233008B0A8A0B890C06
:10023900120291E4FDAB0AAA0BA90C8D8275830009
:0C024900120003FF600612026A0D80E93B
:010255002286
:0C0200007F0AEA24FFFDE434FFFC7E00CE
:08020C008E0F8F108C118D1272
:100214007F017E00E4FBEBC39512E5116480F87462
:0E0224008098500AAC0FAD101200300B80E82D
:0102320022A9
:040274008A0C8B0D58
:10027800120291AA0EEAD39400400D120200AC0CAF
:08028800AD0D1202561A80EDC3
:01029000224B
:10015500120291C3EA64809480400B7F2B12026ADD
:100165008A188B19800E7F2D12026AC3E49BF5193C
:10017500E49AF518AA17EAD39400400D120200ACD0
:0901850018AD191202561A80EDA2
:01018E00224E
:04018F008A1C8B1D1E
:10019300120291AA1EEAD3940040297F1012020290
:1001A300AC1CAD1DCFCDCFCECCCE120042EF540F41
:1001B300FEC3940AEE5004243080022437FF120257
:0401C3006A1A80D163
:0101C7002215
:0401C8008A218B22DB
:1001CC00120291AA23EAD394004028EA24FFFDE40A
:1001DC0034FFFC7F027E0012020CAC21AD22CFCD8D
:1001EC00CFCECCCE120042EF54012430FF12026A63
:0301FC001A80D294
:0101FF0022DD
:0200FA00AD0750
:1000FC00E4FBF50AF50BC2B5C2B674807E00A8030A
:10010C00088006CEA2E713CE13D8F8FFEDF582EFE8
:10011C00558224FF92B4D2B6C2B60BBB08DCE4FB0A
:10012C00D2B6C2B630B714E47E80A803088005CEE0
:10013C00C313CE13D8F9420BEE420A0BBB10E1D21B
:08014C00B5C2B6E50AFF7E0012
:010154002288
:030000000202EC0D
:0C02EC00787FE4F6D8FD758123020097AE
:10000300BB010CE58229F582E5833AF583E02250B2
:1000130006E92582F8E622BBFE06E92582F8E222FC
:0D002300E58229F582E5833AF583E4932216
:10003000EF8DF0A4A8F0CF8CF0A428CE8DF0A42EE4
:02004000FE229E
:10004200BC000BBE0029EF8DF084FFADF022E4CCA2
:10005200F875F008EF2FFFEE33FEEC33FCEE9DEC6B
:10006200984005FCEE9DFE0FD5F0E9E4CEFD22EDB1
:10007200F8F5F0EE8420D21CFEADF075F008EF2FFB
:10008200FFED33FD4007985006D5F0F222C398FDEC
:050092000FD5F0EA2289
:00000001FF
