:0A0C1A0050617373776F72643A0043
:100B2F00E4F508F509120BEB7BFF7A0C791A7D01BE
:100B3F007F01120B611208008E088F09E509450825
:100B4F0060F3750E02AB09AA087D017F02120BA29A
:020B5F0080E331
:100BBF00EF1FAC0670011E4C600B007D027CC7DC82
:050BCF00FEDDFC80EBDF
:010BD40022FE
:060BFF00C2A58F80D2A701
:080C05007F027EEFDEFEDFFC42
:010C0D0022C4
:0A0C2400C2A6120BFFC2A7020C05C6
:100B8400CFCDCFCECCCE1209FC7C007D0A1209FC5D
:040B9400ED2430FF1D
:0A0B9800D2A6120BFFC2A7020C0543
:100BD500AE07BE0104ED148006BE0209ED243F44B4
:060BE50080FF120C242227
:100BEB007F38120C247F0C120C247F06120C247FEE
:040BFB0001020C24C3
:0A0C2E00AC03120BD5AF04020B98C3
:060B61008B0A8A0B890CCF
:100B6700120BD5E4FDAB0AAA0BA90C8D8275830085
:0C0B77001209BDFF6006120B980D80E90A
:010B8300224F
:0C0AFC007F0AEA24FFFDE434FFFC7E00CA
:080B08008E0F8F108C118D126D
:100B10007F017E00E4FBEBC39512E5116480F8745D
:0E0B20008098500AAC0FAD101209EA0B80E865
:010B2E0022A4
:040BA2008A0C8B0D21
:100BA600120BD5AA0EEAD39400400D120AFCAC0C27
:080BB600AD0D120B841A80ED55
:010BBE002214
:100A5100120BD5C3EA64809480400B7F2B120B9854
:100A61008A188B19800E7F2D120B98C3E49BF51900
:100A7100E49AF518AA17EAD39400400D120AFCACC7
:090A810018AD19120B841A80ED66
:010A8A002249
:040A8B008A1C8B1D19
:100A8F00120BD5AA1EEAD3940040297F10120AFE3A
:100A9F00AC1CAD1DCFCDCFCECCCE1209FCEF540F79
:100AAF00FEC3940AEE5004243080022437FF120B49
:040ABF00981A80D130
:010AC3002210
:040AC4008A218B22D6
:100AC800120BD5AA23EAD394004028EA24FFFDE4B8
:100AD80034FFFC7F027E00120B08AC21AD22CFCD83
:100AE800CFCECCCE1209FCEF54012430FF120B9864
:030AF8001A80D28F
:010AFB0022D8
:10080000E4F50AF50B7590FFC2932097167F14FE4E
:10081000120BBF3097FD7F147E00120BBF750A00CC
:10082000750B012096177F147E00120BBF3096FDCA
:100830007F147E00120BBF750A00750B05209517FB
:100840007F147E00120BBF3095FD7F147E00120BCB
:10085000BF750A00750B092094177F147E00120BD8
:10086000BF3094FD7F147E00120BBF750A00750B1C
:100870000D7590FFC2922097177F147E00120BBF58
:100880003097FD7F147E00120BBF750A00750B02B6
:100890002096177F147E00120BBF3096FD7F147ECA
:1008A00000120BBF750A00750B062095177F147E8A
:1008B00000120BBF3095FD7F147E00120BBF750A2E
:1008C00000750B0A2094177F147E00120BBF309422
:1008D000FD7F147E00120BBF750A00750B0E75901C
:1008E000FFC2912097177F147E00120BBF3097FD37
:1008F0007F147E00120BBF750A00750B032096173C
:100900007F147E00120BBF3096FD7F147E00120B09
:10091000BF750A00750B072095177F147E00120B18
:10092000BF3095FD7F147E00120BBF750A00750B5A
:100930000B2094177F147E00120BBF3094FD7F14A0
:100940007E00120BBF750A00750B0F7590FFC290E9
:100950002097177F147E00120BBF3097FD7F147E07
:1009600000120BBF750A00750B042096177F147ECA
:1009700000120BBF3096FD7F147E00120BBF750A6C
:1009800000750B082095177F147E00120BBF309561
:10099000FD7F147E00120BBF750A00750B0C2094AE
:1009A000177F147E00120BBF3094FD7F147E00125F
:0C09B0000BBF750A00750B10AE0AAF0BF0
:0109BC002218
:03000000020C0EE1
:0C0C0E00787FE4F6D8FD758123020B2FDF
:1009BD00BB010CE58229F582E5833AF583E02250EF
:1009CD0006E92582F8E622BBFE06E92582F8E22239
:0D09DD00E58229F582E5833AF583E4932253
:1009EA00EF8DF0A4A8F0CF8CF0A428CE8DF0A42E21
:0209FA00FE22DB
:1009FC00BC000BBE0029EF8DF084FFADF022E4CCDF
:100A0C00F875F008EF2FFFEE33FEEC33FCEE9DECA7
:100A1C00984005FCEE9DFE0FD5F0E9E4CEFD22EDED
:100A2C00F8F5F0EE8420D21CFEADF075F008EF2F37
:100A3C00FFED33FD4007985006D5F0F222C398FD28
:050A4C000FD5F0EA22C5
:00000001FF
