:0602D500012400012800D5
:10000E001203A91204138F27E527B4010CE52470FF
:10001E00047F0180027F008F24E527B40207E4F5F8
:10002E0026F525F528E52764037029AD28FF120370
:10003E004E7F0A7E001203D6AD257F0112034E7F3E
:10004E000A7E001203D6AD267F0212034E7F0A7E71
:10005E00001203D6E527B40415E4FF1202A28F287E
:10006E007F011202A28F257F021202A28F26E526A1
:10007E0075F00A84FD7C007F0112040AE52675F0F6
:10008E000A84E5F0FD7C007F0212040A7D0B7C00E1
:10009E007F0312040AE52575F00A84FD7C007F04B7
:1000AE0012040AE52575F00A84E5F0FD7C007F0553
:1000BE0012040A7D0B7C007F0612040AE52875F0F7
:1000CE000A84FD7C007F0712040AE52875F00A8475
:0D00DE00E5F0FD7C007F0812040A0200110D
:10032700E52460220528E528C394644019E4F528EC
:100337000525E525943C400EE4F5250526E526949C
:070347003C4003E4F526220F
:03000B000200EB05
:1000EB00C0E0C0F0C083C082C0D075D000C000C0DB
:0D00FB0001C002C003C004C005C006C0075C
:10010800758A18758CFC051FE51F7002051EC394BF
:100118000AE51E94004009751E00751F001203278A
:100128000521E52170020520C39414E520940040C0
:10013800097520007521001202690523E523700264
:100148000522C39402E52294004009752200752314
:040158000012038E00
:10015C00D007D006D005D004D003D002D001D000F7
:0B016C00D0D0D082D083D0F0D0E032A1
:1003D600EF1FAC0670011E4C600A7D027CEFDCFE4E
:0403E600DDFC80ECCE
:0103EA0022F0
:0602DB00012B00012A00C6
:05041300E4AF2BF52B06
:0104180022C1
:1003C000E4FF20B1010F20B0027F0220B2027F03C0
:0503D00020B3027F04D0
:0103D5002205
:1002690085292A1203C08F29E5297008E52AB401D6
:1002790003752B01E5297008E52AB40203752B02E1
:10028900E5297008E52AB40303752B03E5297008ED
:08029900E52AB40403752B04EF
:0102A100223A
:10034E008F2C8D2D1204017FA01202FE1203EBAF33
:10035E002C1202FE1203EBAF2D1202FE1203EB0261
:02036E0000038A
:0202A2008F2C9F
:1002A400E4F52D1204017FA01202FE1203EBAF2C21
:1002B4001202FE1203EB1204017FA11202FE1203CA
:1002C400EB1203708F2D7F011203F7120003AF2D81
:0102D4002207
:09040100D2A1D2A0C2A0C2A12226
:07000300C2A0D2A1D2A0228D
:0202FE00AD074A
:10030000E4FB74807E00A803088006CEA2E713CE2B
:1003100013D8F8FFEDF582EF558224FF92A0D2A109
:06032000C2A10BBB08DCCA
:0103260022B4
:10037000E4FFD2A0FED2A130A00D7480A8060880B0
:0D03800002C313D8FC4207C2A10EBE08E85C
:01038D00224D
:0A03F700EF24FF92A0D2A1C2A122C0
:0B03EB00E4D2A0D2A1A2A033FFC2A167
:0103F60022E4
:1002E1000909000A0A0A0A0A0A0A0A0C123F065BED
:0C02F1004F666D7D077F6F004001080123
:09040A00AE0574092FF8A60622C4
:10020300E4F580EF14B40800505490021B75F0031A
:10021300A4C58325F0C583730202330202370202A9
:100223003B02023F02024302024B02025302025B01
:10023300D2A4800ED2A48012D2A48016D2A4801A93
:10024300C2A4D2A3D2A28016C2A4D2A3C2A2800EF9
:10025300C2A4C2A3D2A28006C2A4C2A3C2A2741221
:060263002DF8E6F58022F3
:10038E0074092508F8E6FD7C00AF08120203050883
:0A039E00E508C39409400375080147
:0103A8002232
:1003A9005389F0438901758A18758CFCC28DD28CEA
:0703B900D2A9D2AFC2B922A4
:0300000002017783
:0C017700787FE4F6D8FD75812D0201BEF2
:1001830002000EE493A3F8E493A34003F68001F284
:1001930008DFF48029E493A3F85407240CC8C3337D
:1001A300C4540F4420C8834004F456800146F6DF4C
:1001B300E4800B01020408102040809002D5E47E05
:1001C300019360BCA3FF543F30E509541FFEE49341
:1001D300A360010ECF54C025E060A840B8E493A308
:1001E300FAE493A3F8E493A3C8C582C8CAC583CA33
:1001F300F0A3C8C582C8CAC583CADFE9DEE780BEEB
:0102FD000000
:00000001FF
