:0C0953000A083F065B4F666D7D077F6F52
:0C0931007D017C007E0012088C7FF40E1B
:10093D00EF1FAC0670011E4C600B007D027CC7DC06
:05094D00FEDDFC80EB63
:010952002282
:10088C00EE705BEF14B4080050549008A475F0039C
:10089C00A4C58325F0C583730208BC0208C00208F6
:1008AC00C40208C80208CC0208D40208DC0208E41E
:1008BC00D2A4800ED2A48012D2A48016D2A4801A04
:1008CC00C2A4D2A3D2A28016C2A4D2A3C2A2800E6A
:1008DC00C2A4C2A3D2A28006C2A4C2A3C2A274089C
:0608EC002DF8E6F5802264
:1008F2007D057C007F011209357D027C007F02129A
:100902000935E4FDFC7F03FE1209377F0512093128
:100912007D037C007F061209357F071209317D04B1
:0F0922007C007F087E0012088C7FF40E02093DD6
:03000000020800F3
:0C080000787FE4F6D8FD758111020847EE
:10080C000208F2E493A3F8E493A34003F68001F208
:10081C0008DFF48029E493A3F85407240CC8C333ED
:10082C00C4540F4420C8834004F456800146F6DFBC
:10083C00E4800B0102040810204080900953E47EF0
:10084C00019360BCA3FF543F30E509541FFEE493B1
:10085C00A360010ECF54C025E060A840B8E493A378
:10086C00FAE493A3F8E493A3C8C582C8CAC583CAA3
:10087C00F0A3C8C582C8CAC583CADFE9DEE780BE5B
:01095F000097
:00000001FF
