:100318005772697465204F6B002020202020202010
:10032800200052656164204F6B002020202020208F
:020338002000A3
:10000300E4F508F509F50A1203E012015A8F08E531
:100013000870030200B5B40108050AE50A70020579
:1000230009E508B40208E50A150A70021509E5088E
:100033006403703DAD0AFF12033A7F0A7E00120388
:10004300CBE509FD7F0112033A7F0A7E001203CB41
:100053007BFF7A0379187D017F021202F57FBC7E54
:10006300021203CB7BFF7A0379217D017F02120207
:10007300F5E5086404703BFF1202997509008F0AC5
:100083007F01120299EFFEE4250AF50AEE3509F520
:10009300097BFF7A03792A7D017F021202F57FBC77
:1000A3007E021203CB7BFF7A0379327D017F02123A
:1000B30002F5750F05AB0AAA097D017F01120398AA
:0300C30002000D2B
:1003CB00EF1FAC0670011E4C600A7D027CEFDCFE59
:0403DB00DDFC80ECD9
:0103DF0022FB
:10015A00E4F50B20B1137F14FE1203CB30B1FD7FFF
:10016A00147E001203CB750B0120B0147F147E009D
:10017A001203CB30B0FD7F147E001203CB750B0245
:10018A0020B2147F147E001203CB30B2FD7F147E9E
:10019A00001203CB750B0320B3147F147E001203E5
:1001AA00CB30B3FD7F147E001203CB750B04AF0B6B
:0101BA002222
:0603F400C2A58F80D2A714
:0803FA007F027EEFDEFEDFFC56
:0104020022D7
:0A041B00C2A61203F4C2A70203FAFE
:10035C00CFCDCFCECCCE1201057C007D0A1201058B
:04036C00ED2430FF4D
:0A037000D2A61203F4C2A70203FA9A
:1003B500AE07BE0104ED148006BE0209ED243F44DC
:0603C50080FF12041B2260
:1003E0007F3812041B7F0C12041B7F0612041B7F34
:0403F0000102041BE7
:0A042500AC031203B5AF040203702C
:0602F5008B0B8A0C890D41
:1002FB001203B5E4FDAB0BAA0CA90D8D827583001F
:0C030B001200C6FF60061203700D80E9AE
:0103170022C3
:0C0266007F0AEA24FFFDE434FFFC7E0068
:080272008E108F118C128D1308
:10027A007F017E00E4FBEBC39513E5126480F874FA
:0E028A008098500AAC10AD111200F30B80E802
:010298002243
:040398008A0D8B0E31
:10039C001203B5AA0FEAD39400400D120266AC0DFD
:0803AC00AD0E12035C1A80ED96
:0103B4002226
:1001BB001203B5C3EA64809480400B7F2B1203704B
:1001CB008A198B1A800E7F2D120370C3E49BF51ACC
:1001DB00E49AF519AA18EAD39400400D120266AC02
:0901EB0019AD1A12035C1A80ED33
:0101F40022E8
:0401F5008A1D8B1EB6
:1001F9001203B5AA1FEAD3940040297F101202689E
:10020900AC1DAD1ECFCDCFCECCCE120105EF540F14
:10021900FEC3940AEE5004243080022437FF1203EF
:04022900701A80D1F6
:01022D0022AE
:04022E008A228B2372
:100232001203B5AA24EAD394004028EA24FFFDE47D
:1002420034FFFC7F027E00120272AC22AD23CFCDBE
:10025200CFCECCCE120105EF54012430FF12037031
:030262001A80D22D
:010265002276
:10033A008F0B8D0C1204397FA01202CC120403AF6A
:10034A000B1202CC120403AF0C1202CC12040302E9
:02035A0004425B
:020299008F0BC9
:10029B00E4F50C1204397FA01202CC120403AF0B4D
:1002AB001202CC1204031204397FA11202CC1204E5
:1002BB000312037A8F0C7F0112042F120442AF0C2E
:0102CB002210
:09043900D2A1D2A0C2A0C2A122EE
:07044200C2A0D2A1D2A0224A
:0202CC00AD077C
:1002CE00E4FB74807E00A803088006CEA2E713CE5E
:1002DE0013D8F8FFEDF582EF558224FF92A0D2A13C
:0602EE00C2A10BBB08DCFD
:0102F40022E7
:10037A00E4FFD2A0FED2A130A00D7480A8060880A6
:0D038A0002C313D8FC4207C2A10EBE08E852
:010397002243
:0A042F00EF24FF92A0D2A1C2A12287
:0B040300E4D2A0D2A1A2A033FFC2A14E
:01040E0022CB
:0300000002040FE8
:0C040F00787FE4F6D8FD7581240200031C
:1000C600BB010CE58229F582E5833AF583E02250EF
:1000D60006E92582F8E622BBFE06E92582F8E22239
:0D00E600E58229F582E5833AF583E4932253
:1000F300EF8DF0A4A8F0CF8CF0A428CE8DF0A42E21
:02010300FE22DA
:10010500BC000BBE0029EF8DF084FFADF022E4CCDE
:10011500F875F008EF2FFFEE33FEEC33FCEE9DECA7
:10012500984005FCEE9DFE0FD5F0E9E4CEFD22EDED
:10013500F8F5F0EE8420D21CFEADF075F008EF2F37
:10014500FFED33FD4007985006D5F0F222C398FD28
:050155000FD5F0EA22C5
:00000001FF
