:1004F30020202D20202D20200020203A20203A20CB
:020503002000D6
:100267001204DF1205327BFF7A0479F37D017F01E7
:1002770012046B7BFF7A0479FC7D017F0212046B09
:1002870012000312014EE511FB7A00750C027D0185
:100297007F011204ACE513FB7A00750C027D047F25
:1002A700011204ACE514FB7A00750C027D077F018F
:1002B7001204ACE515FB7A00750C027D017F021272
:1002C70004ACE516FB7A00750C027D047F0212046C
:1002D700ACE517FB7A00750C027D077F021204ACB0
:0202E70080A1F4
:090514000711170509170C1B382B
:05053200C2B6C2B522B3
:0302E90025F0FD00
:0202EC00A90760
:1002EE00E4FBD2B574017E00A803088005C333CEAB
:1002FE0033CED8F9FFE9F582EF558224FF92B4D2BE
:10030E00B6C2B60BBB08DDE4FB74017E00A8030881
:10031E008005C333CE33CED8F9FFEDF582EF55828B
:10032E0024FF92B4D2B6C2B60BBB08DDC2B5C2B4BE
:01033E00229C
:02033F00AD0708
:10034100E4FBF9D2B543050174017E00A8030880DE
:1003510005C333CE33CED8F9FFEDF582EF558224B4
:10036100FF92B4C2B6D2B60BBB08DDE4FBD2B6C273
:10037100B630B40D7401A803088002C333D8FC421F
:0B038100010BBB08E8C2B5C2B4AF011D
:01038C00224E
:10000300E4FD7F8E1202ECE51175F00A84C454F00E
:10001300FFE51175F00A84EF7F8C1202E9E5127592
:10002300F00A84C454F0FFE51275F00A84EF7F8A66
:100033001202E9E51375F00A84C454F0FFE5137561
:10004300F00A84EF25F0FD7F881202ECE51475F0C9
:100053000A84C454F0FFE51475F00A84EF25F0FD1B
:100063007F861202ECE51575F00A84C454F0FFE5AF
:100073001575F00A84EF25F0FD7F841202ECE51676
:1000830075F00A84C454F0FFE51675F00A84EF2571
:10009300F0FD7F821202ECE51775F00A84C454F078
:1000A300FFE51775F00A84EF25F0FD7F801202EC5F
:0700B3007D807F8E0202EC4C
:10014E007F8C12033FEFC4540F75F00AA4FEEF54D8
:10015E000F2EF5117F8A12033FEFC4540F75F00A6C
:10016E00A4FEEF540F2EF5127F8812033FEFC454F6
:10017E000F75F00AA4FEEF540F2EF5137F861203AF
:10018E003FEFC4540F75F00AA4FEEF540F2EF51472
:10019E007F8412033FEFC4540F75F00AA4FEEF5490
:1001AE000F2EF5157F8212033FEFC4540F75F00A20
:1001BE00A4FEEF540F2EF5167F8012033FEFC454AA
:0C01CE000F75F00AA4FEEF540F2EF51779
:0101DA002202
:06050500C2A58F80D2A701
:08050B007F027EEFDEFEDFFC43
:0105130022C5
:0A051E00C2A6120505C2A702050BD4
:10048E00CFCDCFCECCCE1200F97C007D0A1200F972
:04049E00ED2430FF1A
:0A04A200D2A6120505C2A702050B41
:1004C900AE07BE0104ED148006BE0209ED243F44C7
:0604D90080FF12051E2247
:1004DF007F3812051E7F0C12051E7F0612051E7F28
:0404EF000102051EE3
:0A052800AC031204C9AF040204A2E0
:06046B008B088A09890AD2
:100471001204C9E4FDAB08AA09A90A8D827583009B
:0C0481001200BAFF60061204A20D80E910
:01048D00224C
:0C0438007F0AEA24FFFDE434FFFC7E0094
:080444008E0D8F0E8C0F8D1040
:10044C007F017E00E4FBEBC39510E50F6480F8742C
:0E045C008098500AAC0DAD0E1200E70B80E840
:01046A00226F
:0404AC008A0A8B0B22
:1004B0001204C9AA0CEAD39400400D120438AC0A05
:0804C000AD0B12048E1A80ED51
:0104C8002211
:10038D001204C9C3EA64809480400B7F2B1204A22F
:10039D008A1D8B1E800E7F2D1204A2C3E49BF51EB9
:1003AD00E49AF51DAA1CEAD39400400D120438AC52
:0903BD001DAD1E12048E1A80ED24
:0103C6002214
:0403C7008A218B22DA
:1003CB001204C9AA23EAD3940040297F1012043ADD
:1003DB00AC21AD22CFCDCFCECCCE1200F9EF540F46
:1003EB00FEC3940AEE5004243080022437FF12041B
:0403FB00A21A80D1F1
:0103FF0022DB
:040400008A268B2796
:100404001204C9AA28EAD394004028EA24FFFDE490
:1004140034FFFC7F027E00120444AC26AD27CFCD0E
:10042400CFCECCCE1200F9EF54012430FF1204A237
:030434001A80D259
:0104370022A2
:030000000201DB1F
:0C01DB00787FE4F6D8FD7581280202222E
:1000BA00BB010CE58229F582E5833AF583E02250FB
:1000CA0006E92582F8E622BBFE06E92582F8E22245
:0D00DA00E58229F582E5833AF583E493225F
:1000E700EF8DF0A4A8F0CF8CF0A428CE8DF0A42E2D
:0200F700FE22E7
:1000F900BC000BBE0029EF8DF084FFADF022E4CCEB
:10010900F875F008EF2FFFEE33FEEC33FCEE9DECB3
:10011900984005FCEE9DFE0FD5F0E9E4CEFD22EDF9
:10012900F8F5F0EE8420D21CFEADF075F008EF2F43
:10013900FFED33FD4007985006D5F0F222C398FD34
:050149000FD5F0EA22D1
:1001E700020267E493A3F8E493A34003F68001F2C5
:1001F70008DFF48029E493A3F85407240CC8C33319
:10020700C4540F4420C8834004F456800146F6DFE7
:10021700E4800B0102040810204080900514E47E5E
:10022700019360BCA3FF543F30E509541FFEE493DC
:10023700A360010ECF54C025E060A840B8E493A3A3
:10024700FAE493A3F8E493A3C8C582C8CAC583CACE
:10025700F0A3C8C582C8CAC583CADFE9DEE780BE86
:01051D0000DD
:00000001FF
