:1008600020200020202D20202D20200020203A2094
:05087000203A202000E9
:1004F6001203DD750C027B147A007D017F01120860
:1005060016E511FB7A00750C027D037F01120816B1
:10051600E512FB7A00750C027D067F01120816E5CE
:1005260013FB7A00750C027D097F01120816E5148B
:10053600FB7A00750C027D017F02120816E515FB99
:100546007A00750C027D047F02120816E516FB7A06
:0B05560000750C027D077F02020816F2
:10000E00E521B4020B0524E52475F0068485F02461
:10001E00E521640360030200EB74112524F806E564
:10002E0011D394634003E4F511E512D3940C40030D
:10003E00751201E51264016023E5126403601DE58B
:10004E001264056017E51264076011E5126408601A
:10005E000BE512640A6005E512B40C0AE513D3949D
:10006E001F4003751301E51264046011E512640666
:10007E00600BE51264096005E512B40B0AE513D3B3
:10008E00941E4003751301E51264027032E511549B
:10009E0003700AE51175F06484E5F0700FAF117E00
:1000AE00007C017D90120388ED4C7009E513D3940A
:1000BE001C400C8007E513D3941D4003751301E516
:1000CE0014D394174003E4F514E515D3943B400381
:1000DE00E4F515E516D3943B4003E4F516E52164EB
:1000EE000460030201D674112524F816E511D39489
:1000FE00644003751163E512C39401500375120C2D
:10010E00E51264016023E5126403601DE5126405C7
:10011E006017E51264076011E5126408600BE512C2
:10012E00640A6005E512B40C0AE513C3940150038A
:10013E0075131FE51264046011E5126406600BE589
:10014E001264096005E512B40B14E513C394015053
:10015E000375131EE513D3941E4003751301E512A8
:10016E0064027046E5115403700AE51175F064845B
:10017E00E5F0700FAF117E007C017D90120388EDCB
:10018E004C7013E513C39401500375131CE513D380
:10019E00941C40168011E513C39401500375131D72
:1001AE00E513D3941D4003751301E514D394184041
:1001BE0003751417E515D3943C400375153BE516EE
:1001CE00D3943C400375163BE522605DE524146034
:1001DE001D14602414602D14603614603F240560D5
:1001EE000302029F7BFF7A0879607D0380127BFFFA
:1001FE007A0879607D0680087BFF7A0879607D0930
:10020E007F0180227BFF7A0879607D017F02801654
:10021E007BFF7A0879607D047F02800A7BFF7A0873
:10022E0079607D077F020207D5750C027B147A0078
:10023E007D017F01120816E511FB7A00750C027D17
:10024E00037F01120816E512FB7A00750C027D067B
:10025E007F01120816E513FB7A00750C027D097FEB
:10026E0001120816E514FB7A00750C027D017F025F
:10027E00120816E515FB7A00750C027D047F02123A
:10028E000816E516FB7A00750C027D077F02120830
:02029E00162226
:1005C20012088A1200031208337BFF7A0879637DCE
:1005D200037F011207D57BFF7A08796C7D017F02C8
:1005E2001207D51202A01205618F21E521B401166E
:1005F200E5237007752301F524800BE523B401067A
:10060200E4F5231202A0E5231460080470D8120452
:08061200F680D312000E80CE29
:03000B000206F8F2
:0906F800C0E0C0D075D000C007BD
:10070100758A18758CFC0520E5207002051FC394BD
:10071100F4E51F94014012751F00752000E5227059
:09072100047F0180027F008F2299
:07072A00D007D0D0D0E0326F
:0908AD00071117061910320007AB
:05000300C2B6C2B522E7
:03061A0025F0FDCB
:02061D00A9072B
:10061F00E4FBD2B574017E00A803088005C333CE76
:10062F0033CED8F9FFE9F582EF558224FF92B4D289
:10063F00B6C2B60BBB08DDE4FB74017E00A803084D
:10064F008005C333CE33CED8F9FFEDF582EF558257
:10065F0024FF92B4D2B6C2B60BBB08DDC2B5C2B48A
:01066F002268
:02067000AD07D4
:10067200E4FBF9D2B543050174017E00A8030880AA
:1006820005C333CE33CED8F9FFEDF582EF55822480
:10069200FF92B4C2B6D2B60BBB08DDE4FBD2B6C23F
:1006A200B630B40D7401A803088002C333D8FC42EB
:0B06B200010BBB08E8C2B5C2B4AF01E9
:0106BD00221A
:1002A000E51175F00A84C454F0FFE51175F00A8475
:1002B000EF7F8C12061AE51275F00A84C454F0FF21
:1002C000E51275F00A84EF7F8812061AE51375F0BF
:1002D0000A84C454F0FFE51375F00A84EF25F0FD9D
:1002E0007F8612061DE51475F00A84C454F0FFE5FC
:1002F0001475F00A84EF25F0FD7F8412061DE515C4
:1003000075F00A84C454F0FFE51575F00A84EF25F2
:10031000F0FD7F8212061DE51675F00A84C454F0C4
:10032000FFE51675F00A84EF25F0FD7F8012061DAB
:10033000E51775F00A84C454F0FFE51775F00A84D8
:09034000EF25F0FD7F8A02061D85
:1003DD007F8C120670EFC4540F75F00AA4FEEF5413
:1003ED000F2EF5117F88120670EFC4540F75F00AA9
:1003FD00A4FEEF540F2EF5127F86120670EFC45433
:10040D000F75F00AA4FEEF540F2EF5137F8412061C
:10041D0070EFC4540F75F00AA4FEEF540F2EF514AF
:10042D007F82120670EFC4540F75F00AA4FEEF54CC
:10043D000F2EF5157F80120670EFC4540F75F00A5C
:10044D00A4FEEF540F2EF5167F8A120670EFC454DA
:0C045D000F75F00AA4FEEF540F2EF517E7
:010469002270
:06089E00C2A58F80D2A765
:0808A4007F027EEFDEFEDFFCA7
:0108AC002229
:0A08B700C2A612089EC2A70208A400
:1007F800CFCDCFCECCCE1203887C007D0A120388E1
:04080800ED2430FFAC
:0A080C00D2A612089EC2A70208A49B
:10084A00AE07BE0104ED148006BE0209ED243F4442
:06085A0080FF1208B72226
:10088A007F381208B77F0C1208B77F061208B77FA5
:04089A00010208B798
:0A08C100AC0312084AAF0402080C51
:0607D5008B088A09890A65
:1007DB0012084AE4FDAB08AA09A90A8D82758300A9
:0C07EB00120349FF600612080C0D80E9A3
:0107F70022DF
:0C07A2007F0AEA24FFFDE434FFFC7E0027
:0807AE008E0D8F0E8C0F8D10D3
:1007B6007F017E00E4FBEBC39510E50F6480F874BF
:0E07C6008098500AAC0DAD0E1203760B80E841
:0107D4002202
:040816008A0A8B0BB4
:10081A0012084AAA0CEAD39400400D1207A2AC0AA5
:08082A00AD0B1207F81A80ED76
:0108320022A3
:1006BE0012084AC3EA64809480400B7F2B12080C08
:1006CE008A1D8B1E800E7F2D12080CC3E49BF51E17
:1006DE00E49AF51DAA1CEAD39400400D1207A2ACB1
:0906EE001DAD1E1207F81A80ED83
:0106F70022E0
:040731008A278B2860
:1007350012084AAA29EAD3940040297F101207A477
:10074500AC27AD28CFCDCFCECCCE120388EF540F3A
:10075500FEC3940AEE5004243080022437FF1208A9
:040765000C1A80D119
:01076900226D
:04076A008A2C8B2D1D
:10076E0012084AAA2EEAD394004028EA24FFFDE498
:10077E0034FFFC7F027E001207AEAC2CAD2DCFCD28
:10078E00CFCECCCE120388EF54012430FF12080CCA
:03079E001A80D2EC
:0107A1002235
:10056100E4F50820B1137F14FE12087530B1FD7F48
:10057100147E0012087575080120B0147F147E00E6
:1005810012087530B0FD7F147E00120875750802DF
:1005910020B2147F147E0012087530B2FD7F147EE4
:1005A1000012087575080320B3147F147E00120829
:1005B1007530B3FD7F147E00120875750804AF080D
:0105C1002217
:10087500EF1FAC0670011E4C600A7D027CEFDCFEAA
:04088500DDFC80EC2A
:01088900224C
:100833005389F0438901758A18758CFCC28DD28C5B
:07084300D2A9D2AFC2B92215
:0300000002046A8D
:0C046A00787FE4F6D8FD75812E0204B105
:10034900BB010CE58229F582E5833AF583E0225069
:1003590006E92582F8E622BBFE06E92582F8E222B3
:0D036900E58229F582E5833AF583E49322CD
:10037600EF8DF0A4A8F0CF8CF0A428CE8DF0A42E9B
:02038600FE2255
:10038800BC000BBE0029EF8DF084FFADF022E4CC59
:10039800F875F008EF2FFFEE33FEEC33FCEE9DEC22
:1003A800984005FCEE9DFE0FD5F0E9E4CEFD22ED68
:1003B800F8F5F0EE8420D21CFEADF075F008EF2FB2
:1003C800FFED33FD4007985006D5F0F222C398FDA3
:0503D8000FD5F0EA2240
:100476000205C2E493A3F8E493A34003F68001F2D5
:1004860008DFF48029E493A3F85407240CC8C33387
:10049600C4540F4420C8834004F456800146F6DF56
:1004A600E4800B01020408102040809008ADE47E31
:1004B600019360BCA3FF543F30E509541FFEE4934B
:1004C600A360010ECF54C025E060A840B8E493A312
:1004D600FAE493A3F8E493A3C8C582C8CAC583CA3D
:1004E600F0A3C8C582C8CAC583CADFE9DEE780BEF5
:0108B6000041
:00000001FF
