:0302C00081640056
:1003B800120468E47864F27864E2FB04FD7F0112B9
:0F03C80003447864E204F2E2C3940840EA80FE42
:10045300EF1FAC0670011E4C600A7D027CEFDCFED0
:04046300DDFC80EC50
:010467002272
:1002C300A0408310060908080906000000001F006B
:1002D300000000000E0000001F00000E00000E00D2
:1002E300001F001F1115151F111F00081F120F0AF1
:1002F3001F02000F090F090F0913001F11111F110E
:03030300111F00C7
:1003F300C2A6C2A58F80D2A77F017E00120453C27A
:08040300A77F017E00020453F3
:10040B00D2A6C2A58F80D2A77F017E00120453C251
:08041B00A77F017E00020453DB
:100468007F381203F37F0C1203F37F061203F37F26
:04047800010203F387
:1004230078C8EDF2EFB40104E214800578C8E22441
:080433003F4480FF1203F32295
:0A043B002430FBE2FF08E2FD04F2AA
:0E04450078C7EBF212042378C7E2FF02040B23
:100271007865EFF208EDF208EBF208EAF208E9F22C
:10028100E408F27867E2FB08E2FA08E2F908E2F52D
:100291008275830012001C60257865E2FF08E2FD8B
:1002A10004F208E2FB08E2FA08E2F908E2FE04F2CD
:0E02B1008E8275830012001CFB12044580C56E
:0102BF00221C
:0603D700786BEFF2A905AE
:1003DD007F017E00AD0119ED600B786BE2FD7C00B5
:0503ED0012004980EF41
:0103F20022E8
:10030700786CEFF208EDF208EAF208EBF27870E2A7
:10031700FF14F2EF6026E2FD7F0A1203D7786EE240
:10032700FC08E2FDCFCDCFCECCCE12005B7C007DAA
:0D0337000A12005BED786C12043B80D122AD
:0D00B0007871EFF208EDF208EAF208EBF2C9
:1000BD00E47876F208F2C3EA648094807873E240C3
:1000CD0017FF08E27876CFF208EFF27871E2FF08B9
:1000DD00E2FD04F27B2B8051FE08E2FFC3E49FFF9B
:1000ED00E49E7876F208EFF27871E2FF08E2FD0403
:1000FD00F27B2D80347875E2FF14F2EF6030E2FD73
:10010D007F0A1203D77876E2FC08E2FDCFCDCFCE81
:10011D00CCCE12005B7C007D0A12005BED2430FB1F
:0E012D007871E2FF08E2FD04F212044580C77B
:01013B0022A1
:0D01C8007878EFF208EDF208EAF208EBF2A9
:1001D500E4787DF2787CE2FF14F2EF603EE2FD7F89
:1001E500101203D7787AE2FC08E2FDCFCDCFCECC52
:1001F500CE12005BEF540F787DF2C3940A7878E253
:10020500FF08E2FD045008F2787DE224308006F212
:0B021500787DE22437FB12044580B91D
:0102200022BB
:10038000787EEFF208EDF208EAF208EBF27882E20A
:10039000FF14F2EF6021E2FD7F021203D77880E2C2
:1003A000FC08E2FDCFCDCFCECCCE12005BEF5401E6
:0803B000787E12043B80D62286
:0D02210078C7EFF208EBF208EAF208E9F204
:10022E00E408F278C7E233333354F8F2E478CBF2D1
:10023E0078CBE2FFC39408502978C7E22F4440FFE1
:10024E001203F378C8E2FB0808E2F92401F218E27F
:10025E00FA3400F2120003FF12040B78CBE204F220
:02026E0080CE40
:01027000226B
:0A03440078C3EFF208EDF208EBF2C7
:10034E00E408F2F278C6E2FFC394085018EF75F095
:10035E0008A42483F9E4FA7BFEE2FF12022178C698
:10036E00E204F280DF78C3E2FF08E2FD08E2FB025E
:02037E00044534
:0300000002013CBE
:0C013C00787FE4F6D8FD7581070201838E
:10000300BB010689828A83E0225002E722BBFE02FB
:09001300E32289828A83E493222E
:10001C00BB010CE58229F582E5833AF583E0225099
:10002C0006E92582F8E622BBFE06E92582F8E222E3
:0D003C00E58229F582E5833AF583E49322FD
:10004900EF8DF0A4A8F0CF8CF0A428CE8DF0A42ECB
:02005900FE2285
:10005B00BC000BBE0029EF8DF084FFADF022E4CC89
:10006B00F875F008EF2FFFEE33FEEC33FCEE9DEC52
:10007B00984005FCEE9DFE0FD5F0E9E4CEFD22ED98
:10008B00F8F5F0EE8420D21CFEADF075F008EF2FE2
:10009B00FFED33FD4007985006D5F0F222C398FDD3
:0500AB000FD5F0EA2270
:100148000203B8E493A3F8E493A34003F68001F212
:1001580008DFF48029E493A3F85407240CC8C333B8
:10016800C4540F4420C8834004F456800146F6DF87
:10017800E4800B01020408102040809002C0E47E55
:10018800019360BCA3FF543F30E509541FFEE4937C
:10019800A360010ECF54C025E060A840B8E493A343
:1001A800FAE493A3F8E493A3C8C582C8CAC583CA6E
:1001B800F0A3C8C582C8CAC583CADFE9DEE780BE26
:0103060000F6
:00000001FF
