:0A0C570050617373776F72643A0006
:100A5100E4F508F509F50AF50BF50C750D01120C15
:100A6100287BFF7A0C79577D017F01120B9E1208BA
:100A7100008E088F09E509450860F3D3E509940A5A
:100A8100E508940050E87C007D0A1209FC8C0A8D6F
:100A91000BD3E50D9404E50C940050D2E50945080B
:100AA10060CCAD0D751201AB0BAA0A7F02120BDFF0
:0F0AB100050DE50D7002050CE4F508F50980D27E
:100BFC00EF1FAC0670011E4C600B007D027CC7DC45
:050C0C00FEDDFC80EBA1
:010C110022C0
:060C3C00C2A58F80D2A7C3
:080C42007F027EEFDEFEDFFC05
:010C4A002287
:0A0C6100C2A6120C3CC2A7020C420E
:100BC100CFCDCFCECCCE1209FC7C007D0A1209FC20
:040BD100ED2430FFE0
:0A0BD500D2A6120C3CC2A7020C428B
:100C1200AE07BE0104ED148006BE0209ED243F4476
:060C220080FF120C6122AC
:100C28007F38120C617F0C120C617F06120C617FF9
:040C380001020C6148
:0A0C6B00AC03120C12AF04020BD50B
:060B9E008B0E8A0F891086
:100BA400120C12E4FDAB0EAA0FA9108D82758300FE
:0C0BB4001209BDFF6006120BD50D80E990
:010BC0002212
:0C0B6B007F0AEA24FFFDE434FFFC7E005A
:080B77008E138F148C158D16EE
:100B7F007F017E00E4FBEBC39516E5156480F874E6
:0E0B8F008098500AAC13AD141209EA0B80E8EE
:010B9D002235
:040BDF008A108B11DC
:100BE300120C12AA12EAD39400400D120B6BAC1034
:080BF300AD11120BC11A80EDD7
:010BFB0022D7
:100AC000120C12C3EA64809480400B7F2B120BD56A
:100AD0008A1C8B1D800E7F2D120BD5C3E49BF51D48
:100AE000E49AF51CAA1BEAD39400400D120B6BACE0
:090AF0001CAD1D120BC11A80EDB2
:010AF90022DA
:040AFA008A208B21A2
:100AFE00120C12AA22EAD3940040297F10120B6D19
:100B0E00AC20AD21CFCDCFCECCCE1209FCEF540F01
:100B1E00FEC3940AEE5004243080022437FF120BD9
:040B2E00D51A80D183
:010B320022A0
:040B33008A258B265E
:100B3700120C12AA27EAD394004028EA24FFFDE406
:100B470034FFFC7F027E00120B77AC25AD26CFCD9C
:100B5700CFCECCCE1209FCEF54012430FF120BD5B7
:030B67001A80D21F
:010B6A002268
:10080000E4F50EF50F7590FFC2932097167F14FE46
:10081000120BFC3097FD7F147E00120BFC750E004E
:10082000750F012096177F147E00120BFC3096FD89
:100830007F147E00120BFC750E00750F05209517B6
:100840007F147E00120BFC3095FD7F147E00120B8E
:10085000FC750E00750F092094177F147E00120B93
:10086000FC3094FD7F147E00120BFC750E00750F9A
:100870000D7590FFC2922097177F147E00120BFC1B
:100880003097FD7F147E00120BFC750E00750F0271
:100890002096177F147E00120BFC3096FD7F147E8D
:1008A00000120BFC750E00750F062095177F147E45
:1008B00000120BFC3095FD7F147E00120BFC750EB0
:1008C00000750F0A2094177F147E00120BFC3094E1
:1008D000FD7F147E00120BFC750E00750F0E7590D7
:1008E000FFC2912097177F147E00120BFC3097FDFA
:1008F0007F147E00120BFC750E00750F03209617F7
:100900007F147E00120BFC3096FD7F147E00120BCC
:10091000FC750E00750F072095177F147E00120BD3
:10092000FC3095FD7F147E00120BFC750E00750FD8
:100930000B2094177F147E00120BFC3094FD7F1463
:100940007E00120BFC750E00750F0F7590FFC290A4
:100950002097177F147E00120BFC3097FD7F147ECA
:1009600000120BFC750E00750F042096177F147E85
:1009700000120BFC3096FD7F147E00120BFC750EEE
:1009800000750F082095177F147E00120BFC309520
:10099000FD7F147E00120BFC750E00750F0C209469
:1009A000177F147E00120BFC3094FD7F147E001222
:0C09B0000BFC750E00750F10AE0EAF0FA3
:0109BC002218
:03000000020C4BA4
:0C0C4B00787FE4F6D8FD758127020A517D
:1009BD00BB010CE58229F582E5833AF583E02250EF
:1009CD0006E92582F8E622BBFE06E92582F8E22239
:0D09DD00E58229F582E5833AF583E4932253
:1009EA00EF8DF0A4A8F0CF8CF0A428CE8DF0A42E21
:0209FA00FE22DB
:1009FC00BC000BBE0029EF8DF084FFADF022E4CCDF
:100A0C00F875F008EF2FFFEE33FEEC33FCEE9DECA7
:100A1C00984005FCEE9DFE0FD5F0E9E4CEFD22EDED
:100A2C00F8F5F0EE8420D21CFEADF075F008EF2F37
:100A3C00FFED33FD4007985006D5F0F222C398FD28
:050A4C000FD5F0EA22C5
:00000001FF
