:0302DC00011F00FF
:100261001203431202FCE508B41603E4F51DE50888
:10027100B40C03751D01E508B41803751D02E508EA
:10028100B45E03751D03E51D7002F51FE51DB40184
:1002910003751F32E51DB40203751F4BE51DB40341
:1002A10003751F64E51DFD7C007F011201F480B61A
:03001B000202B12D
:1002B100C0E0C0F0C0D0758B9C758DFF051EE51E9A
:1002C10075F0648485F01EE51EC3951F5004D2901D
:0B02D1008002C290D0D0D0F0D0E0320C
:100313005389F0438901E4F58AF58CC28DC28C229E
:06033700E4F58CF58A22BA
:09032E00AF8CEFFEAD8AEDFF2259
:06033D00EF24FF928C2268
:10000600EF1FAC0670011E4C600A7D027CEFDCFE21
:04001600DDFC80ECA1
:01001A0022C3
:0B032300D288C289D2A8D2AFD2B82283
:1002DF00010800010A01040B0000000002100000D9
:0603430012031302032364
:0300030002001EDA
:10001E00C0E0C0F0C083C082C0D075D000C000C0A8
:10002E0001C002C003C004C005C006C007E50F70C2
:10003E000E1203377F0112033D750F0102014DE5CC
:10004E000F6401704D12032E8E108F11120337C3E1
:10005E00E511948EE51094325010E51194A6E5103A
:10006E00942E4006750F0202014DD3E511948CE5D6
:10007E001094264017E5119474E510942A500D75CE
:10008E000F00E4FF12033D050A02014D750F000239
:10009E00014DE50F6402600302014D12032E8E1016
:1000AE008F11120337C3E51194FCE5109405502C03
:1000BE00E5119414E51094024022E5121313135423
:1000CE001F240BF8C000E6FFE5125407FE7401A8CA
:1000DE0006088002C333D8FCF45F8034C3E5119464
:1000EE000EE510940A5030E5119426E51094064062
:1000FE0026E512131313541F240BF8C000E6FFE578
:10010E00125407FE7401A806088002C333D8FC4FB0
:10011E00D000F605128006751200750F01E512D398
:10012E00941F401BE50CF4B50B0CE50EF4B50D0653
:10013E00850B09850D08751200750F00120337D057
:10014E0007D006D005D004D003D002D001D000D005
:0A015E00D0D082D083D0F0D0E03280
:1002FC0053890F438910758B9C758DFFC28FD28EDD
:07030C00D2ABD2AFC2BB224D
:0C02EF000A133F065B4F666D7D077F6FB2
:1001F400EF14B40800505490020975F003A4C583A9
:1002040025F0C5837302022102022502022902029B
:100214002D020231020239020241020249D2A480B3
:100224000ED2A48012D2A48016D2A4801AC2A4D260
:10023400A3D2A28016C2A4D2A3C2A2800EC2A4C218
:10024400A3D2A28006C2A4C2A3C2A274132DF8E64C
:0D025400F5807F017E00120006E4F5802297
:0300000002016892
:0C016800787FE4F6D8FD75811F0201AF1E
:10017400020261E493A3F8E493A34003F68001F23E
:1001840008DFF48029E493A3F85407240CC8C3338C
:10019400C4540F4420C8834004F456800146F6DF5B
:1001A400E4800B01020408102040809002DCE47E0D
:1001B400019360BCA3FF543F30E509541FFEE49350
:1001C400A360010ECF54C025E060A840B8E493A317
:1001D400FAE493A3F8E493A3C8C582C8CAC583CA42
:1001E400F0A3C8C582C8CAC583CADFE9DEE780BEFA
:0102FB000002
:00000001FF
