:03000300010A00EF
:10009A001200F6E4F50A850A097F057E0012010DB1
:1000AA00050AE50AC3946440ED750A64E50AD39427
:1000BA000040E0850A097F057E0012010D150A80BD
:0100CA00EB4A
:03000B000200CB25
:1000CB00C0E0C0F0C0D0758AA4758CFF0508E508A8
:1000DB0075F0648485F008E508C395095004D2A136
:0B00EB008002C2A1D0D0D0F0D0E032E3
:1000F6005389F0438901758AA4758CFFC28DD28C11
:07010600D2A9D2AFC2B92259
:10010D00EF1FAC0670011E4C600A7D027CEFDCFE19
:04011D00DDFC80EC99
:0101210022BB
:0300000002000EED
:0C000E00787FE4F6D8FD75810A020055E9
:10001A0002009AE493A3F8E493A34003F68001F262
:10002A0008DFF48029E493A3F85407240CC8C333E7
:10003A00C4540F4420C8834004F456800146F6DFB6
:10004A00E4800B0102040810204080900003E47E43
:10005A00019360BCA3FF543F30E509541FFEE493AB
:10006A00A360010ECF54C025E060A840B8E493A372
:10007A00FAE493A3F8E493A3C8C582C8CAC583CA9D
:10008A00F0A3C8C582C8CAC583CADFE9DEE780BE55
:0100060000F9
:00000001FF
