:1008000075080075091E750A00750B30750C0075AA
:100810000D13750E00750F1C751000751101751202
:10082000077513E7120C18751804AB13AA127D0193
:100830007F01120BCF7B2D7D057F01120C517518A6
:1008400002AB11AA107D067F01120BCF7B2D7D0814
:100850007F01120C51751802AB0FAA0E7D097F01A2
:10086000120BCF751802AB0DAA0C7D0C7F01120B79
:10087000CF7B3A7D0E7F01120C51751802AB0BAA8B
:100880000A7D0F7F01120BCF751802AB09AA087DF4
:10089000097F02120BCF7FE87E03120C020509E5E7
:1008A0000970020508C3943CE50864809480400DFB
:1008B000E4F508F509050BE50B7002050AC3E50B25
:1008C000943CE50A64809480400DE4F50AF50B053C
:1008D0000DE50D7002050CC3E50D9418E50C648060
:1008E0009480400DE4F50CF50D050FE50F70020541
:1008F0000EE5106003020827E51114B40C00400354
:1009000002082790091175F003A4C58325F0C5835B
:10091000730209350209500209350209AA02093594
:100920000209AA0209350209350209AA020935029B
:1009300009AA020935D3E50F941FE50E648094805F
:10094000400E750E00750F010511E51170020510BE
:10095000AE12AF137C007D04120A7AED4C7004EDE8
:100960004C700FAE12AF137C017D90120A7AED4CE1
:10097000701DD3E50F941CE50E64809480402B75A8
:100980000E00750F010511E511701F0510801BD3B6
:10099000E50F941DE50E64809480400E750E007581
:1009A0000F010511E51170020510D3E50F941EE546
:1009B0000E64809480400E750E00750F010511E5E0
:1009C0001170020510D3E511940CE5106480948039
:1009D00050030208277510007511010513E5137007
:0609E000020512020827C7
:060C2C00C2A58F80D2A7D3
:080C32007F027EEFDEFEDFFC15
:010C3A002297
:0A0C4700C2A6120C2CC2A7020C3248
:100BB100CFCDCFCECCCE120A257C007D0A120A25DC
:040BC100ED2430FFF0
:0A0BC500D2A6120C2CC2A7020C32BB
:100BEC00AE07BE0104ED148006BE0209ED243F449D
:060BFC0080FF120C4722ED
:100C18007F38120C477F0C120C477F06120C477F57
:040C280001020C4772
:0A0C5100AC03120BECAF04020BC55C
:060B8E008B2E8A2F893036
:100B9400120BECE4FDAB2EAA2FA9308D82758300D5
:0C0BA4001209E6FF6006120BC50D80E987
:010BB0002222
:0C0B5B007F0AEA24FFFDE434FFFC7E006A
:080B67008E198F1A8C1B8D1CE6
:100B6F007F017E00E4FBEBC3951CE51B6480F874EA
:0E0B7F008098500AAC19AD1A120A130B80E8C8
:010B8D002245
:040BCF008A168B17E0
:100BD300120BECAA18EAD39400400D120B5BAC166F
:080BE300AD17120BB11A80EDF1
:010BEB0022E7
:100AB000120BECC3EA64809480400B7F2B120BC5B1
:100AC0008A228B23800E7F2D120BC5C3E49BF52356
:100AD000E49AF522AA21EAD39400400D120B5BACF4
:090AE00022AD23120BB11A80EDC6
:010AE90022EA
:040AEA008A268B27A6
:100AEE00120BECAA28EAD3940040297F10120B5D5A
:100AFE00AC26AD27CFCDCFCECCCE120A25EF540FDC
:100B0E00FEC3940AEE5004243080022437FF120BE9
:040B1E00C51A80D1A3
:010B220022B0
:040B23008A2B8B2C62
:100B2700120BECAA2DEAD394004028EA24FFFDE437
:100B370034FFFC7F027E00120B67AC2BAD2CCFCDB0
:100B4700CFCECCCE120A25EF54012430FF120BC5AD
:030B57001A80D22F
:010B5A002278
:100C0200EF1FAC0670011E4C600B007D027CC7DC3E
:050C1200FEDDFC80EB9B
:010C170022BA
:03000000020C3BB4
:0C0C3B00787FE4F6D8FD758130020800D7
:1009E600BB010CE58229F582E5833AF583E02250C6
:1009F60006E92582F8E622BBFE06E92582F8E22210
:0D0A0600E58229F582E5833AF583E4932229
:100A1300EF8DF0A4A8F0CF8CF0A428CE8DF0A42EF7
:020A2300FE22B1
:100A2500BC000BBE0029EF8DF084FFADF022E4CCB5
:100A3500F875F008EF2FFFEE33FEEC33FCEE9DEC7E
:100A4500984005FCEE9DFE0FD5F0E9E4CEFD22EDC4
:100A5500F8F5F0EE8420D21CFEADF075F008EF2F0E
:100A6500FFED33FD4007985006D5F0F222C398FDFF
:050A75000FD5F0EA229C
:100A7A00C2D5EC30E709B2D5E4C39DFDE49CFCEE97
:100A8A0030E715B2D5E4C39FFFE49EFE120A25C3E0
:100A9A00E49DFDE49CFC8003120A2530D507C3E4DB
:060AAA009FFFE49EFE2206
:00000001FF
